:060000000A128A110C280F
:10000800FE00030EF0000A08F1000A128A15012802
:100018000A128A110F288313C230FD001530FE0022
:100028007B30FF00A03084000A168A1133250A129B
:100038008A116F30FD000730FE00FD30FF006C3084
:1000480084000A168A1133250A128A1183160313AB
:10005800C201C301C401C50183120313E001E10118
:10006800E201E301E401E501E601E701E801E90154
:10007800EA01EB01FA01FB0183010A128A159E2CA1
:1000880083120313DA000A168A1191260A128A11BA
:100098001230831203136D06031D53285428F029C8
:1000A8000A168A1122250A128A114930F60091305F
:1000B800F7008030F8000A168A110F260A128A11F2
:1000C8007B0883120313D4005407A03E84008313D3
:1000D8000008F600840A00088403F7008530F80059
:1000E8000A168A110F260A128A114230F600913038
:1000F800F700C030F8000A168A110F260A128A1172
:10010800C63083120313A0000A30F2000030F30057
:100118006B08D400D5015408F4005508F5000A12FC
:100128008A153B200A128A117208303E0A128A1177
:10013800E8270A128A11C73083120313A0000A3075
:10014800F2000030F3006B08D400D5015408F40025
:100158005508F5000A168A11E7260A128A1172084C
:10016800303E0A128A11E8270A128A11C83083120F
:100178000313A0003A300A128A11E8270A128A11DA
:10018800C93083120313A0000A30F2000030F300D4
:100198006A08D400D5015408F4005508F5000A127D
:1001A8008A153B200A128A117208303E0A128A11F7
:1001B800E8270A128A11CA3083120313A0000A30F2
:1001C800F2000030F3006A08D400D5015408F400A6
:1001D8005508F5000A168A11E7260A128A117208CC
:1001E800303E0A128A11E8270A128A113230F600C4
:1001F8009130F7009530F8000A168A110F260A1276
:100208008A11333083120313D600BB30D500DF3098
:10021800D400D40B0D29D50B0D29D60B0D290A16A0
:100228008A1122250A128A11B130F6009030F7009F
:100238008030F8000A168A110F260A128A114230F5
:10024800F6009130F700C030F8000A168A110F2620
:100258000A128A111130F6009030F700D030F800F9
:100268000A168A110F260A128A11831203136B08C1
:10027800D400D5015408F2005508F3003C30F400CE
:100288000030F5000A168A11C1250A128A11831254
:1002980003136A087207E20000300318013073077D
:1002A800E3006308E1006208E0006208F200630806
:1002B800F3000030F31BFF30F400F50001300A12A0
:1002C8008A112E270A128A11750883120313AD00AA
:1002D8007408AC007308AB007208AA003E30A9008D
:1002E800EB30A8008530A7001F30A6000A128A113B
:1002F800E9230A128A11831203132908C300280864
:10030800C2002708C1002608C0000A128A15A220C8
:100318000A128A11831203134108E5004008E40019
:100328006208F2006308F3000030F31BFF30F400AA
:10033800F50001300A128A112E270A128A1175084F
:1003480083120313AD007408AC007308AB00720885
:10035800AA003D30A900F530A800C230A7008F30B0
:10036800A6000A128A11E9230A128A1183120313BA
:100378002908C3002808C2002708C1002608C000B1
:100388000A128A15A2200A128A118312031341083D
:10039800E7004008E6006409D4006509D500D40ADE
:1003A8000319D50A66085402D6006708031C670AB1
:1003B8005502D7006208560783160313C400831238
:1003C800031363080318630A570783160313C5004A
:1003D80083120313071512151F305A06031DF5293A
:1003E800F629FA29071112110530EE006B08D4001E
:1003F800D5015408F2005508F3003C30F4000030F1
:10040800F5000A168A11C1250A128A1183120313EC
:100418006A087207E2000030031801307307E3002E
:1004280008307B020318192A1A2A792A64086002FC
:10043800D4006508031C650A6102D50055086302EB
:10044800031D282A54086202031C2B2A2C2A382A46
:100458007B30F6009130F7008A30F8000A168A11CE
:100468000F260A128A112E2B6409D4006509D500BB
:10047800D40A0319D50A83160313440883120313F5
:100488005402D600831603134508031C450A831239
:1004980003135502D70060085607D80061080318EF
:1004A800610A5707D90059086302031D5D2A5808D5
:1004B8006202031C602A612A6D2A6430F6009130BA
:1004C800F7008A30F8000A168A110F260A128A11D4
:1004D8002E2B5E30F6009130F7008A30F8000A16AD
:1004E8008A110F260A128A112E2B08307B06031D4B
:1004F8007E2A7F2A112B6208F2006308F30000307D
:10050800F31BFF30F400F50001300A128A112E2780
:100518000A128A11750883120313CB007408CA00E3
:100528007308C9007208C8006008F2006108F30087
:100538000030F31BFF30F400F50001300A128A1175
:100548002E270A128A11750883120313C70074082C
:10055800C6007308C5007208C4006008F20061088C
:10056800F3000030F31BFF30F400F50001300A12ED
:100578008A112E270A128A11750883120313AD00F7
:100588007408AC007308AB007208AA003E30A900DA
:10059800CC30A800CC30A700CD30A6000A128A11B2
:1005A800E9230A128A11831203132908C3002808B1
:1005B800C2002708C1002608C0000A168A119D2516
:1005C8000A128A11831203134308CF004208CE008F
:1005D8004108CD004008CC000A128A151A210A12D7
:1005E8008A11031CF82AF92A052B6430F600913089
:1005F800F7008A30F8000A168A110F260A128A11A3
:100608002E2B8030F6009130F7008A30F8000A1659
:100618008A110F260A128A112E2B09307B06031D18
:10062800162B172B232B8030F6009130F7008A30D9
:10063800F8000A168A110F260A128A112E2B7B300F
:10064800F6009130F7008A30F8000A168A110F2652
:100658000A128A11C63083120313A0000A30F2006E
:100668000030F3006B08D400D5015408F400550895
:10067800F5000A128A153B200A128A117208303EC8
:100688000A128A11E8270A128A11C7308312031343
:10069800A0000A30F2000030F3006B08D400D50146
:1006A8005408F4005508F5000A168A11E7260A12BC
:1006B8008A117208303E0A128A11E8270A128A1132
:1006C800C83083120313A0003A300A128A11E827AF
:1006D8000A128A11C93083120313A0000A30F200EB
:1006E8000030F3006A08D400D5015408F400550816
:1006F800F5000A128A153B200A128A117208303E48
:100708000A128A11E8270A128A11CA3083120313BF
:10071800A0000A30F2000030F3006A08D400D501C6
:100728005408F4005508F5000A168A11E7260A123B
:100738008A117208303E0A128A11E8270A128A11B1
:10074800831203136A08031DAA2BAB2BE82B6B0833
:10075800031DAF2BB02BE82B0711121187140A16B3
:100768008A1122250A128A114230F6009030F700C9
:100778008030F8000A168A110F260A128A11603092
:10078800F6009030F700C030F8000A168A110F26DC
:100798000A128A11333083120313D600BB30D500F6
:1007A800DF30D400D40BD62BD50BD62BD60BD62BBB
:1007B800831203138710EE01EE0A1030ED000A16BB
:1007C8008A1122250A128A110800831203132908A4
:1007D8008039B3002908AE002E07B900A81FF52BF1
:1007E800F62BF72B391439080319FB2BFC2B0B2C90
:1007F800390A031D002C012C092C0030A9000030F7
:10080800A8000030A7000030A600A817132C00305D
:10081800A9000030A8000030A7000030A6002D086D
:100828008039FF007F08B3062D08AE002E07B400FC
:10083800AC1F1F2C202C212C341434080319252C10
:10084800262C352C340A031D2A2C2B2C332C003053
:10085800AD000030AC000030AB000030AA00AC178F
:100868003D2C0030AD000030AC000030AB00003053
:10087800AA0034080319412C422C472C3908031DBF
:10088800462C472C502C0030A9000030A80000301E
:10089800A7000030A6002D2F2608F2002C080A1603
:1008A8008A11E6250A128A11730883120313BF00FE
:1008B8007208BE003E08AE00AF01B001B1013108B8
:1008C800B8003008B7002F08B6002E08B5003F085A
:1008D800AE00AF01B001B1013108BD003008BC0065
:1008E8002F08BB002E08BA002708F2002B080A16AA
:1008F8008A11E6250A128A11730883120313BF00AE
:100908007208BE003E08AE00AF01B001B1012E086A
:10091800B5072F0803110318013E0319942CB607D5
:10092800300803110318013E03199B2CB70731083F
:1009380003110318013E0319A22CB8073F08AE00A3
:10094800AF01B001B1012E08BA072F08031103182F
:10095800013E0319B02CBB07300803110318013EF0
:100968000319B72CBC07310803110318013E0319FA
:10097800BE2CBD072808F2002A080A168A11E625A7
:100988000A128A11730883120313BF007208BE008B
:100998003E08AE00AF01B001B1012E08B5072F081F
:1009A80003110318013E0319DA2CB60730080311A6
:1009B8000318013E0319E12CB70731080311031886
:1009C800013E0319E82CB8073F08AE00AF01B0019B
:1009D800B1012E08BA072F0803110318013E0319A5
:1009E800F62CBB07300803110318013E0319FD2C30
:1009F800BC07310803110318013E0319042DBD0774
:100A08000830AE000310B50DB60DB70DB80DAE0B1E
:100A1800062D2708F2002A080A168A11E6250A1266
:100A28008A11730883120313BF007208BE003E08C0
:100A3800AE003F08AF00B001B1012E08B5072F087E
:100A480003110318013E03192A2DB60730080311B4
:100A58000318013E0319312DB70731080311031894
:100A6800013E0319382DB8072608F2002B080A168C
:100A78008A11E6250A128A11730883120313BF002C
:100A88007208BE003E08AE003F08AF00B001B101D9
:100A98002E08B5072F0803110318013E0319552D19
:100AA800B607300803110318013E03195C2DB70778
:100AB800310803110318013E0319632DB8070830E4
:100AC800AE000310B50DB60DB70DB80DAE0B652D04
:100AD8002608F2002A080A168A11E6250A128A113F
:100AE800730883120313BF007208BE003E08AE00ED
:100AF8003F08AF00B001B1012E08B5072F08031158
:100B08000318013E0319892DB6073008031103188D
:100B1800013E0319902DB707310803110318013E50
:100B28000319972DB8072708F2002C080A168A110E
:100B3800E6250A128A11730883120313BF0072088C
:100B4800BE003E08AE003F08AF00B001B1012E085C
:100B5800BA072F0803110318013E0319B42DBB0768
:100B6800300803110318013E0319BB2DBC073108D7
:100B780003110318013E0319C22DBD072808F2000E
:100B88002B080A168A11E6250A128A11730883129D
:100B98000313BF007208BE003E08AE003F08AF0056
:100BA800B001B1012E08BA072F0803110318013E3E
:100BB8000319DF2DBB07300803110318013E031981
:100BC800E62DBC07310803110318013E0319ED2D6A
:100BD800BD072808F2002C080A168A11E6250A1211
:100BE8008A11730883120313BF007208BE003E08FF
:100BF800AE003F08AF00B001B10108300310AE0DE0
:100C0800AF0DB00DB10DFF3E031D022E2E08BA0721
:100C18002F0803110318013E0319132EBB073008D0
:100C280003110318013E03191A2EBC0731080311DA
:100C38000318013E0319212EBD073508AE003608FA
:100C4800AF003708B0003808B10018300310B10CF5
:100C5800B00CAF0CAE0CFF3E031D2A2E2E08BA07AF
:100C68002F0803110318013E03193B2EBB07300858
:100C780003110318013E0319422EBC073108031162
:100C88000318013E0319492EBD070830AE000310B2
:100C9800B50DB60DB70DB80DAE0B4B2E3908340790
:100CA800AE00AF01AF0D2E08823EBE002F0803181C
:100CB800013EFF3EBF007D2E0130AE000310BA0D8D
:100CC800BB0DBC0DBD0DAE0B622EB81F6C2E6D2E6C
:100CD8006E2E3A140130AE000310B50DB60DB70DE7
:100CE800B80DAE0B702EFF30BE070318BF0AFF30D9
:100CF800BF07BC1F802E812E602EB401B81F852E21
:100D0800862EA22EFF303505AE00FF303605AF0027
:100D1800FF303705B0007F303805B10031083004A6
:100D28002F042E040319992E9A2E9D2EB401B40A6D
:100D3800A22E3A1CA02EA12EA22E9A2E34080319F8
:100D4800A62EA72ED82E0130BA070030031801307E
:100D5800BB07003003180130BC070030031801300E
:100D6800BD073D1CB82EB92ED82E3A08AE003B0858
:100D7800AF003C08B0003D08B1000130B200310DB1
:100D8800B10CB00CAF0CAE0CB20BC32E3108BD00C9
:100D98003008BC002F08BB002E08BA000130BE077F
:100DA8000318BF0A0030BF073F08803AFF008030B1
:100DB8007F02031DE12EFF303E02031CE42EE52EC8
:100DC800F02E7F3083120313BD008030BC0000304A
:100DD800BB000030BA00212F831203133F08803A6A
:100DE800FF0080307F02031DFB2E01303E020318F6
:100DF800FE2EFF2E0B2F003083120313BD00003090
:100E0800BC000030BB000030BA00B301212F8312B0
:100E180003133E08B900FF30BA05FF30BB057F3029
:100E2800BC050030BD05391C1A2F1B2F1C2FBC1701
:100E38003908AE0003102E0CBD003308FF007F08F0
:100E4800BD043D08A9003C08A8003B08A7003A08D3
:100E5800A600080083120313A00020080319352FE9
:100E6800362F4A2FF51F392F3A2F4A2F7209A20021
:100E78007309A3007409A4007509A500A20A03193F
:100E8800A30A0319A40A0319A50A522F7508A50075
:100E98007408A4007308A3007208A20075087404FB
:100EA80073047204031D592F5A2F632F0030F50065
:100EB8000030F4000030F3000030F200E72F9630E5
:100EC800A100732F0130FF007F08A1070130031034
:100ED800A50CA40CA30CA20CFF3E031D6B2FFE3027
:100EE8002505031D782F792F662F952F0130FF00D8
:100EF8007F08A1070130A207003003180130A307BB
:100F0800003003180130A407003003180130A5078A
:100F180001300310A50CA40CA30CA20CFF3E031D6A
:100F28008D2FFF302505031D9A2F9B2F7A2FA72F72
:100F38000130A1020130F6000310A20DA30DA40D8B
:100F4800A50DF60BA02FA41BAA2FAB2FB12F023093
:100F580021020318B02FB12F9C2F2118B42FB52FC1
:100F6800BD2FFF30A205FF30A3057F30A405FF3059
:100F7800A5050310A10C2108F600F701F801F901F5
:100F880018300310F60DF70DF80DF90DFF3E031D8F
:100F9800C52F7608A2047708A3047808A404790862
:100FA800A50420080319D92FDA2FDF2FF51FDD2F0D
:100FB800DE2FDF2FA5172508F5002408F4002308E5
:100FC800F3002208F200080083120313A100F201C3
:100FD80020080A168A115B250A128A11F201F20A00
:100FE8008312031321080A168A115B250A128A1133
:080FF80008000134103401343B
:10100200831203138C1C0628072834280130831608
:101012000313C2070318C30A0030C307E2304206B3
:10102200043003194306031D172818283228C20169
:10103200C301831203136A080319202821282428D4
:101042000130EA0232286A08031D2828292832289A
:101052006B0803192D282E2832280130EB023B3071
:10106200EA0083128C1071088A00700E8300FE0E53
:101072007E0E0900F701F31F3F2840284728F20996
:10108200F309F20A0319F30AF701F70AF51F4A28CE
:101092004B285428F409F509F40A0319F50A01301A
:1010A200FF007F08F706F801F901720873040319BB
:1010B2005B285C289328F601F60A6A28013003109F
:1010C200F20DF30DFF3E031D60280130FF007F0883
:1010D200F607F31F6D286E285F2801300310F80D04
:1010E200F90DFF3E031D6F2873087502031D7B284F
:1010F20072087402031C7E287F2886287208F40274
:101102007308031CF503F502781401300310F30C85
:10111200F20CFF3E031D87280130F602031D9228C0
:1011220093286E2877080319972898289D28F8098C
:10113200F909F80A0319F90A7908F3007808F200A4
:101142000800031083120313420D430DC90049081E
:10115200031DAC28AD28B6280030C3000030C20001
:101162000030C1000030C00019294008C400410805
:10117200C5004208C6004308C7001F300310C70C51
:10118200C60CC50CC40CFF3E031DBF284408C80092
:10119200C217FF30C005FF30C105FF30C205003065
:1011A200C3059630C902C91FD728D828F228490892
:1011B200803A973E0318DE28DF28E028AD28013068
:1011C2000310C30CC20CC10CC00CFF3E031DE1286E
:1011D2000130FF007F08C907031DF028F128E0282D
:1011E200092920304902031CF728F8280429AD28D0
:1011F2000130C4000310C00DC10DC20DC30DC40BDC
:10120200FB280130C9024908031D08290929F928C8
:10121200480803190D290E291929C009C109C20953
:10122200C309C00A0319C10A0319C20A0319C30A6E
:1012320008000030831203134805D000003049052E
:10124200D10080304A05D2007F304B05D3005308CD
:10125200520451045004031D2F293029382900302B
:10126200CB000030CA000030C9000030C800003096
:101272004C05D00000304D05D10080304E05D20023
:101282007F304F05D3005308520451045004031D0C
:101292004B294C2954290030CF000030CE000030B9
:1012A200CD000030CC00CB1F572958297C290030B3
:1012B200D0000030D1000030D2008030D300480886
:1012C200D0024908031C490F67296829D1024A083C
:1012D200031C4A0F6D296E29D2024B08031C4B0FC7
:1012E20073297429D3025308CB005208CA0051084B
:1012F200C9005008C800CF1F7F298029A4290030C7
:10130200D0000030D1000030D2008030D3004C0831
:10131200D0024D08031C4D0F8F299029D1024E088F
:10132200031C4E0F95299629D2024F08031C4F0F1A
:101332009B299C29D3025308CF005208CE005108A2
:10134200CD005008CC008030CB068030CF064F084D
:101352004B02031DB6294E084A02031DB6294D0849
:101362004902031DB6294C0848020318B929BA29B3
:10137200BC290310BD29031408008B2A21308312D3
:101382000313EA00EB01B12A293083120313EA00A6
:10139200C3292D3083120313EA00C3297A08003AC5
:1013A2000319C529013A0319BF29033A0319C529AB
:1013B200013A0319CA29073A0319CA29B12A2B305B
:1013C20083120313EA00C329323083120313EA00A3
:1013D200C329393083120313EA00C3297A08003A79
:1013E2000319E529013A0319E029033A0319E5290A
:1013F200013A0319EA29073A0319EA29B12A1A30EC
:1014020083120313EA00C3291F3083120313EA0075
:10141200C3297A08003A0319002A013A0319002A5B
:10142200033A0319002A013A0319052A073A031954
:10143200052AB12A103083120313EA00EB01EB0AEA
:10144200B12A243083120313EA001F2A24308312A4
:101452000313EA00C3291D3083120313EA00C329D0
:101462002E3083120313EA00C3293530831203138B
:10147200EA00C32983120313EA011F2A7A08003AF9
:101482000319362A013A0319312A033A0319362A73
:10149200013A03193B2A073A03193B2AB12A1230AF
:1014A20083120313EA00C329143083120313EA00E0
:1014B200C3297A08003A0319552A013A0319502A16
:1014C200033A0319552A013A0319552A073A03190F
:1014D200552AB12A063083120313EA00C3291030B9
:1014E20083120313EA00C329153083120313EA009F
:1014F200C3297A08003A0319752A013A0319702A96
:10150200033A0319752A013A0319002A073A031903
:10151200002AB12A7B08003A0319CF29013A03199C
:10152200EF29033A03190A2A013A03191B2A073A37
:101532000319222A013A0319272A033A03192C2AEA
:10154200013A03193F2A0F3A03195A2A013A031999
:101552006B2A033A03197A2A013A03197A2AB12A21
:10156200080083120313A40010306D06031DBA2A6B
:10157200BB2AC12A0A168A1122250A128A15FB01E0
:101582003730831203132406031DC82AC92AD92A15
:101592000130FF007F08FB070A168A1122250A1272
:1015A2008A150C307B06031DD72AD82AD92AFB01BB
:1015B2003230F6009030F7008030F8000A168A11B7
:1015C2000F260A128A15C03083120313A0002A3094
:1015D2000A128A11E8270A128A150A307B020318B6
:1015E200F32AF42A342B7B0883120313A200220766
:1015F200A03E840083130008F600840A00088403D6
:10160200F700C230F8000A168A110F260A128A154C
:101612007B0883120313A2002207A23E84008313D5
:101622000008F600840A00088403F7009230F800EC
:101632000A168A110F260A128A157B0883120313CF
:10164200A2002207A43E840083130008F600840A45
:1016520000088403F700D230F8000A168A110F2618
:101662000A128A15A72B0A307B06031D392B3A2B47
:10167200722B7B0883120313A2002207A03E840070
:1016820083130008F600840A00088403F700C230BE
:10169200F8000A168A110F260A128A157B0883128D
:1016A2000313A2002207A23E840083130008F6005F
:1016B200840A00088403F7009230F8000A168A119F
:1016C2000F260A128A15831603132008F600210832
:1016D200F700D230F8000A168A110F260A128A156C
:1016E200A72B0B307B06031D772B782BA72B7B08B0
:1016F20083120313A2002207A03E84008313000872
:10170200F600840A00088403F700C230F8000A16C3
:101712008A110F260A128A15831603132008F6006F
:101722002108F7009230F8000A168A110F260A12D1
:101732008A15831603132208F6002308F700D23015
:10174200F8000A168A110F260A128A150800831257
:101752000313A40011306D06031DB02BB12BB72B60
:10176200FA010A168A1122250A128A1537308312C3
:1017720003132406031DBE2BBF2BCF2B0130FF000A
:101782007F08FA0705307A06031DC82BC92BCA2B1E
:10179200FA010A168A1122250A128A159830F600D1
:1017A2009030F7008030F8000A168A110F260A12CC
:1017B2008A15C03083120313A0002A300A128A113C
:1017C200E8270A128A1503307A020318E92BEA2B5A
:1017D2002A2C7A0883120313A2002207B83E84003F
:1017E20083130008F600840A00088403F700C2305D
:1017F200F8000A168A110F260A128A157A0883122D
:101802000313A2002207BA3E840083130008F600E5
:10181200840A00088403F7009230F8000A168A113D
:101822000F260A128A157A0883120313A2002207CE
:10183200BC3E840083130008F600840A0008840377
:10184200F700D230F8000A168A110F260A128A15FA
:101852009D2C03307A06031D2F2C302C682C7A081D
:1018620083120313A2002207B83E840083130008E8
:10187200F600840A00088403F700C230F8000A1652
:101882008A110F260A128A157A0883120313A200FC
:101892002207BA3E840083130008F600840A000877
:1018A2008403F7009230F8000A168A110F260A12F2
:1018B2008A15831603133808F6003908F700D23068
:1018C200F8000A168A110F260A128A159D2C043076
:1018D2007A06031D6D2C6E2C9D2C7A08831203133D
:1018E200A2002207B83E840083130008F600840A8F
:1018F20000088403F700C230F8000A168A110F2686
:101902000A128A15831603133808F6003908F700FD
:101912009230F8000A168A110F260A128A158316C7
:1019220003133A08F6003B08F700D230F8000A1613
:101932008A110F260A128A1508000A168A114225F0
:101942000A128A1501300A168A1140270A128A15CC
:101952007D30F6009030F7008130F8000A168A11C7
:101962000F260A128A150E30F6009130F700C330A6
:10197200F8000A168A110F260A128A152230F6007A
:101982009030F7009130F8000A168A110F260A12D9
:101992008A15DF2CB83083120313DB000B30DC0016
:1019A2000130DB020030031CDC03DC025B0A031D96
:1019B200DE2C5C0A031DDE2CDF2CD12C01300A1632
:1019C2008A1140270A128A152F3A031DE92CEA2CA4
:1019D200CB2C0A168A119F270A128A1501300A1681
:1019E2008A1140270A128A1583120313DF00B830C6
:1019F200DD000B30DE000130DD020030031CDE03AF
:101A0200DE025D0A031D092D5E0A031D092D0A2D42
:101A1200FC2CB7305F06031D0F2D102D1A2D6E03FF
:101A2200031D142D152D1A2D0230EE001130ED007C
:101A3200552DB7305F06031D1F2D202D552D023069
:101A42006E06031D252D262D552D0A128A15BE213F
:101A52000A128A15033083120313EE000A168A1142
:101A620022250A128A156F30F6009030F700813075
:101A7200F8000A168A110F260A128A15DC30F600BF
:101A82009030F700C130F8000A168A110F260A12A8
:101A92008A151730F6009130F7009130F8000A16D7
:101AA2008A110F260A128A152F30831203135F063A
:101AB200031D5C2D5D2D932D05306E06031D622DD9
:101AC200632D932D121507150430EE00932D5F0838
:101AD2000A128A15B2220A128A15A12D5F080A1269
:101AE2008A15A8230A128A15A12D2F305F06031D1D
:101AF2007B2D7C2D812D0430EE001230ED00EF2C79
:101B02001F305F06031D862D872DA12DEE01EE0AE3
:101B12001030ED00EF2C5F080A128A1144200A12DD
:101B22008A15A12D6E08013A0319682D033A03198B
:101B32006F2D013A0319762D073A03198C2DA12D29
:101B420083120313ED01EF2C0A128A110C28750877
:101B5200803983120313A8007508A0002007AA0089
:101B6200F41FB42DB52DB62D2A142A080319BA2D47
:101B7200BB2DCB2D2A0A031DBF2DC02DC82D003031
:101B8200F5000030F4000030F3000030F200F417EA
:101B9200F501D32D0030F5000030F4000030F300E1
:101BA2000030F20079088039A900290828060319B3
:101BB200DB2DDC2DDD2D28177908A0002007A900D8
:101BC200F81FE42DE52DE62D291429080319EA2D25
:101BD200EB2DFB2D290A031DEF2DF02DF82D0030E2
:101BE200F9000030F8000030F7000030F600F81776
:101BF200F901032E0030F9000030F8000030F70040
:101C02000030F6002A0829020318082E092E2F2E6A
:101C1200281F0C2E0D2E112E8030FF007F08A806E3
:101C22002A08AB002908AA002B08A9007208AB00F9
:101C32007608F2002B08F6007308AB007708F30071
:101C42002B08F7007408AB007808F4002B08F800A2
:101C52007508AB007908F5002B08F900AB012908DB
:101C6200A000A1012108A3002A082002A200031C4F
:101C7200A3032308803AFF0080307F02031D432E16
:101C82001A302202031C462E472E7E2E750874043B
:101C920073047204031D4E2E502E0130512E00305B
:101CA20083120313AB000030F5000030F400003063
:101CB200F3000030F2002908AA00862E2B1C622EA7
:101CC200632E6A2E2B08A0000310200C0138AB00F3
:101CD2006C2E0310AB0C721C6F2E702E712EAB1774
:101CE2000130A000750DF50CF40CF30CF20CA00BF6
:101CF200732E0130FF007F08AA07831203132908FD
:101D02002A02031C852E862E5F2E281B892E8A2EE0
:101D1200D32E2A08031D8E2E8F2E982E0030F5000A
:101D22000030F4000030F3000030F200FF2F76089C
:101D3200F207770803110318013E0319A12EF307D6
:101D4200780803110318013E0319A82EF407790835
:101D520003110318013E0319AF2EF507751CB22EAD
:101D6200B32E872F2B1CB62EB72EBE2E2B08A0000B
:101D72000310200C0138AB00C02E0310AB0C721CF8
:101D8200C32EC42EC52EAB170130A000750DF50C65
:101D9200F40CF30CF20CA00BC72E0130FF007F08ED
:101DA200AA07872F7508803AFF007908803A7F02D8
:101DB200031DE52E78087402031DE52E77087302D1
:101DC200031DE52E760872020318E82EE92E412F34
:101DD200FF30A000FF30A100FF30A200FF30A300BF
:101DE2007608A4007708A5007808A6007908A7005D
:101DF2007208A4027308031C730F002F012FA5029F
:101E02007408031C740F062F072FA6027508031C03
:101E1200750F0C2F0D2FA7022408A0072508031801
:101E2200250F142F152FA10726080318260F1A2F86
:101E32001B2FA20727080318270AA3072308F50068
:101E42002208F4002108F3002008F2008030FF008D
:101E52007F08A806AB09AB0A2B08031D312F322FCE
:101E62004F2F0130F207003003180130F307003022
:101E720003180130F407003003180130F5074F2F23
:101E82007608F2027708031C770FF3027808031C26
:101E9200780FF4027908031C790FF50275087404AF
:101EA20073047204031D562F572F832F2B08031D13
:101EB2005B2F5C2F832F0030F5000030F4000030E0
:101EC200F3000030F200FF2F0130A0000310F20DEA
:101ED200F30DF40DF50DA00B672FAB1F712F722FB1
:101EE200732F72142B1C762F772F7A2F0314AB0DBE
:101EF2007C2F0310AB0D2A080319802F812F832F0B
:101F02000130AA02F41F862F872F652FA901AB1F6C
:101F12008B2F8C2F9A2F2B087F390319912F922FF9
:101F2200952FA901A90A9A2F721C982F992F9A2FDF
:101F3200922F290803199E2F9F2FD32F0130F207CA
:101F4200003003180130F307003003180130F407A2
:101F5200003003180130F507751CB02FB12FD32FB5
:101F62007208A0007308A1007408A2007508A300FB
:101F72000130A400230DA30CA20CA10CA00CA40BF5
:101F8200BB2F2308F5002208F4002108F3002008E3
:101F9200F2002A0A0319CE2FCF2FD32F0130FF00D0
:101FA2007F08AA072A0A0319D72FD82FDD2F2A085C
:101FB200031DDC2FDD2FEB2F0030F5000030F40085
:101FC2000030F3000030F2002A08031DE92FEA2F47
:101FD200EB2FA8012A1CEE2FEF2FF12FF417F52F6C
:101FE2007F30FF007F08F4052A08A0000310200CB0
:101FF200F500A81FFD2FFE2FFF2FF51708005734FD
:1020020061347334683469346E34673420344D3447
:1020120061346334683469346E3465342034003496
:1020220035342D34533454344134523454342034FE
:10203200203436342D3450344134553453344534FD
:102042000034573461347334683469346E3467341D
:1020520020344D3461346334683469346E34653409
:102062000034573461347334683469346E346734FD
:102072002034503472346F346734723461346D34C6
:102082000034503472346F346734203463346F3424
:102092006D3470346C3465347434653464340034B3
:1020A20043346C346F34733465342034743468349C
:1020B2006534203464346F346F34723400345234F3
:1020C20065346D346F3476346534203443346C3483
:1020D2006F34743468346534733400345034723479
:1020E200653473347334203453347734693474343C
:1020F20063346834203400345034723465347334B9
:10210200733420346B346534793435342034743488
:102112006F34003450346F34773465347234693438
:102122006E34673420344F344E3420340034573404
:10213200613474346534723420344C34653476340A
:1021420065346C343A340034453463346F342D349E
:1021520063346F34743474346F346E3473340034D3
:10216200463475346E346334743469346F346E3487
:102172002D342034003441347134753461342034C8
:10218200733474346F3472346534003444346F34CD
:102192006F3472343A3420344F34703465346E34D0
:1021A2000034463475346E346334743469346F34B5
:1021B2006E342D3400345334573435343A34533476
:1021C200543441345234543400345334743461340A
:1021D20069346E3477346134733468340034423491
:1021E20065346434733468346534653474347334F8
:1021F2000034573461347334683420346F346E34AD
:102202006C3479340034523469346E347334653446
:102212002B34443472347934003450346F3477348C
:102222006534723420344F344E34003453345734CE
:1022320036343A34533454344F3450340034443402
:1022420065346C3469346334613474346534003415
:1022520044347234793420346F346E346C347934CB
:10226200003428344D344D343A3453345334293401
:10227200003457346F346F346C3465346E347334D5
:102282000034543469346D3465343A3420340034C3
:10229200503472346F3467343A34203400344D345D
:1022A20065346434693475346D34003457346834B9
:1022B200693474346534733400345334703469349B
:1022C2006E3420340034523469346E3473346534DD
:1022D20000344434613469346C3479340034483421
:1022E200653461347634793400344834693467347F
:1022F20068340034573461347334683400345334EE
:10230200703469346E3400344134753474346F344B
:1023120000344C346F34773400344D3461347834C3
:102322000034FF1B9C2983137F1883170008840A3B
:102332000319FF0A08007F087F398A000408840A0B
:062342000319FF0A8200EE
:102A08008316031306083F3886000800831603134D
:102A18008801091189100A168A113E260A168A1198
:102A280008008312031312149214FA308316031346
:102A380092008C148312031312110800F201013062
:102A48000A168A115B250A168A11A630F600F60BBB
:102A58002B2D000008007E088A007F0882000A16D5
:102A68008A112F250A168A118000840A04087D0617
:102A780003190034FF0A0319FE0A332D0A168A11B6
:102A880004250A168A110A168A110A250A168A11B5
:102A980083160313071187108312031387100A166E
:102AA8008A1115250A168A110B178B170800F500CD
:102AB80072185F2D632D831203130915662D831277
:102AC80003130911750888008914A630F300F30B65
:102AD8006B2D00008312031389101B30F4009E3005
:102AE800F300F30B752DF40B752D000008006A3404
:102AF8009134703491342034913457349134E6341D
:102B08009034A5349034F03490343A349134043409
:102B1800913429349134FA349034BC349034853467
:102B280091348A34913450349134763491348E34DB
:102B38009134803083120313C3064708F500460812
:102B4800F4004508F3004408F2004308F90042087D
:102B5800F8004108F7004008F6000A128A15A8256F
:102B68000A168A11750883120313C3007408C20079
:102B78007308C1007208C0000800F601F701721C52
:102B8800C62DC72DCD2D7408F6070318F70A75084A
:102B9800F70701300310F40DF50DFF3E031DCE2D90
:102BA80001300310F30CF20CFF3E031DD52D720803
:102BB8007304031DE02DE12DC32D7708F30076087B
:102BC800F200080083120313A400A001A1017208F7
:102BD800F400F5017408A2007508A300241CF52D63
:102BE800F62DFC2D2208A0070318A10A2308A10727
:102BF80001300310A20DA30DFF3E031DFD2D031090
:102C0800A40C2408031D092E0A2EF22D2108F30016
:102C18002008F2000800F20178080A168A115B25DC
:102C28000A168A112D2EF201F20A7708FF0076089B
:102C380084000A168A1192210A168A110A168A1124
:102C48005B250A168A110130F6070318F70A0030C7
:102C5800F707770883120313FF00760884000A1623
:102C68008A1192210A168A11003A031D3C2E3D2E24
:102C7800172E0800C330F700CD30F600F60B422EB1
:102C8800F70B422EF20133300A168A115B250A1619
:102C98008A111B30F7009E30F600F60B512EF70B09
:102CA800512E0000F20133300A168A115B250A16EC
:102CB8008A11A630F600F60B5F2E0000F2013330C1
:102CC8000A168A115B250A168A116A2E6B2E0000D5
:102CD800F20130300A168A115B250A168A11A630CD
:102CE800F600F60B752E0000F20101300A168A1163
:102CF8005B250A168A11A630F600F60B812E000015
:102D0800F2010C300A168A115B250A168A11A630C0
:102D1800F600F60B8D2E0000080083120313061828
:102D2800962E972EE62E0711121187140A168A116D
:102D380022250A168A11C730F6009030F700803035
:102D4800F8000A168A110F260A168A115130F60061
:102D58009030F7009030F8000A168A110F260A16EC
:102D68008A1183120313061CBA2EBB2EB52E0A161F
:102D78008A1122250A168A11D230F6009030F700FF
:102D88008030F8000A168A110F260A168A11423076
:102D9800F6009130F700C030F8000A168A110F26A5
:102DA8000A168A111130F6009030F700D030F8007A
:102DB8000A168A110F260A168A1183120313071599
:102DC800121587100800F701F51FEB2EEC2EF32ED5
:102DD800F409F509F40A0319F50AF701F70AF31FCC
:102DE800F62EF72EFC2EF209F309F20A0319F30A5C
:102DF800720873040319012F022F312FF601F60A06
:102E0800102F01300310F20DF30DFF3E031D062FA6
:102E18000130FF007F08F607F31F132F142F052F2B
:102E280073087502031D1A2F72087402031C1D2FE4
:102E38001E2F242F7208F4027308031CF503F502F1
:102E480001300310F30CF20CFF3E031D252F013057
:102E5800F602031D302F312F142F77080319352F51
:102E6800362F3B2FF409F509F40A0319F50A7508FA
:102E7800F3007408F2000800F3007308031D452FDF
:102E8800462F4B2F8312031306083F399E2F3F30DE
:102E9800831203130605F2003F3072060319552FFB
:102EA800562F612F6C0803195A2F5B2F612FEC01E5
:102EB800E90106083F39E8009D2F6C08031D652FBE
:102EC800662F782F06083F396806031D6C2F6D2F73
:102ED800782F1E3069020318722F732F782F013054
:102EE800FF007F08E9079D2F1E306906031D7D2F0F
:102EF8007E2F852F0130FF007F08E907680880389A
:102F08009E2F3F300605F2003F307206031D8D2FBD
:102F18008E2F9D2F6C08031D922F932F9D2FEC0150
:102F2800EC0A1E30690203189A2F9B2F9D2F680800
:102F38009E2F3F30080083120313A501A601250820
:102F4800803EA000FF300A128A11E8270A168A116B
:102F5800013083120313A5070318A60A0030A60739
:102F680000302602103003192502031CBC2FBD2F88
:102F7800A32F8B30F6009030F700C230F8000A1605
:102F88008A110F260A168A110030F6009030F700D1
:102F98009130F8000A168A110F260A168A11831230
:102FA8000313A7012708D03EA000FF300A128A1198
:102FB800E8270A168A110130FF007F0883120313DD
:102FC800A70710302702031CEA2FEB2FD62F1A3041
:102FD80083120313A4005E30A3006D30A200A20B7D
:102FE800F32FA30BF32FA40BF32FFA2F0A168A1132
:082FF80022250A168A110800C7
:02400E00FB3F76
:00000001FF
